:020000040800F2
:10000000903B0020990100083B2900083D2800088A
:100010003929000829100008612C000800000000A0
:1000200000000000000000000000000001010008C6
:100030006310000800000000450100081D2A0008A8
:10004000B3010008B3010008B3010008B3010008C0
:10005000B3010008B3010008B3010008B3010008B0
:10006000B3010008B3010008B30100082D10000817
:10007000B3010008B3010008B3010008B301000890
:10008000B3010008B3010008B3010008B301000880
:10009000B3010008B3010008B3010008B301000870
:1000A000B3010008B3010008B3010008B301000860
:1000B000C52A0008B3010008B3010008B301000815
:1000C000B3010008B3010008B3010008B301000840
:1000D000B3010008B3010008B3010008B301000830
:1000E000B3010008B3010008B3010008DFF80CD029
:1000F00000F0E0FE0048004755330008903B002028
:10010000224B19680868B0E8F00F80F30988BFF344
:100110006F8F4FF0000080F311884EF00D0E704786
:100120000000000006480068006880F3088862B696
:1001300061B6BFF34F8FBFF36F8F00DF00BF00BF0B
:1001400008ED00E0EFF30980BFF36F8F0F4B1A68E3
:1001500020E9F00F106008B54FF0500080F31188CF
:10016000BFF34F8FBFF36F8F04F0FEF94FF0000025
:1001700080F31188BDE8084019680868B0E8F00FFE
:1001800080F30988BFF36F8F704700BF1C00002009
:10019000EFF3058070470000064880470648004797
:1001A000FEE7FEE7FEE7FEE7FEE7FEE7FEE7FEE727
:1001B000FEE7FEE7C12A0008ED0000082DE9F04F38
:1001C0004FF0000C4FF0000301EB1C6EBEF9025023
:1001D000BEF900400EF5807EBEF90290BEF90080A7
:1001E0000EF5807EBEF90270BEF900600EF5807ECD
:1001F000BEF902B0BEF900A00EF5807ED044D9440D
:10020000A8EB4A0AA9EB4B0B4FEAA4044FEAA50559
:1002100004EBA60405EBA705A4EB6606A5EB6707B0
:1002200004EBA80405EBA905A4EB6808A5EB690994
:1002300006EBAB06A7EBAA07A6EB6B0B07EB6A0A6C
:10024000458020F8044B478020F8046BA0F802900A
:1002500020F8048BA0F802A020F804BB03F10103EE
:1002600093FAA3FC402BAFD1A0EB82014FF0100317
:1002700012090FF2361000F1000006B403EB430C34
:100280006144A2F5803202EB8332B1F90250B1F938
:100290000040A1EB0301B0F902B0B0F900A000F1F9
:1002A0000400A5EB040E0EFB0BFC0AEB4B0E05FB4A
:1002B0000ACB04FB0ECAB1F90250B1F90040A1EB20
:1002C0000301B0F90290B0F9008000F10400A5EB41
:1002D000040E0EFB09FC08EB490E05FB08C904FBE4
:1002E0000EC8B1F90250B1F90040A1EB0301B0F919
:1002F0000270B0F9006000F10400A5EB040E0EFBE3
:1003000007FC06EB470E05FB06C704FB0EC6B1F95A
:100310000250B1F9004001F10001D044D944A8EBEA
:100320004A0AA9EB4B0B4FEAA4044FEAA50504EBDC
:10033000264405EB2745A4EBE636A5EBE73704EBAF
:10034000284405EB2945A4EBE838A5EBE93906EB91
:100350002B46A7EB2A47A6EBEB3B07EBEA3A4D808F
:100360000C8019444F800E801944A1F80290A1F826
:1003700000801944A1F802A021F804BBB2F5803234
:1003800083DA03EB430C6144A2F101025FEA024EFF
:1003900018BFA0EB0C007FF476AF06BC4FEA8303D6
:1003A00092087FF46AAFBDE8F08F00400000004083
:1003B0000000004000005DDD213BA3227E1800000C
:1003C000412D7EA5412D0000412D00C000405DDD86
:1003D00082E75DDD213B7EA5412D0040000000400D
:1003E000000000400000AA2A94126B3946064932E8
:1003F0007C0CA8118E2349327C0CA3227E1821F795
:100400007931AA2A9412A8118E235DDD213BA32203
:100410007E180000412D95C6B13F461A2B1E58EE9E
:100420003735BEB4C53EA8118E235DDD213B63A9DF
:100430007138DF089A28B7CDC53E7EA5412D000052
:10044000412D00C0004063A92B1E21F77931BEB4B5
:10045000C53EBEB47C0C58EE373561AC213B95C629
:10046000BAF9BAE571383BA737355DDD82E75DDD66
:10047000213B7EA5412D21F766D756D53F3D3BA7B1
:100480008E23A811C9CAB7CDC53E61AC7E18AA2A71
:10049000C1C295C6B13FBEB47C0C00400000004014
:1004A0000000004000001E3BB504693E9201C83CBC
:1004B0002403EB356409C83C24036B3946066C30D1
:1004C000060E1E3BB504EB356409AA2A94126B395B
:1004D000460649327C0CAE240917AF37D607882E62
:1004E0008D0F7E1E5D1BEB356409AA2A9412241819
:1004F0008C1F1E34F10AB3269015A8118E234932A1
:100500007C0CA3227E18140B60276C30060E7E1E16
:100510005D1B7104FB2A882E8D0F461A2B1EC7FD0A
:100520005A2E9D2C1211FE15E72021F77931AA2AA7
:100530009412A8118E2387F05334B2281314480D57
:10054000202602EAE536B3269015DF089A289CE3B8
:100550002B39AE2409177104FB2A5DDD213BA32250
:100560007E180000412D4ED7C53C9320EF198FFB1C
:100570006C2F78D1153E7E1E5D1B21F77931E2CBC1
:100580000F3F641CC61CB8F2683395C6B13F461ACB
:100590002B1E58EE373597C1FB3F24188C1F02EAFB
:1005A000E536F0BCEC3FFE15E720BAE57138A6B899
:1005B000853FD5133D2282E1DB39BEB4C53EA8118B
:1005C0008E235DDD213B40B1AF3D790FDA244DD95B
:1005D000423C2EAE423C480D202656D53F3D8EABC8
:1005E000823A140B602778D1153E63A97138DF0871
:1005F0009A28B7CDC53EB1A71236A906CE2915CA8D
:100600004F3F78A668337104FB2A95C6B13FBCA55D
:1006100076303902212C38C3EC3F7EA5412D0000F5
:10062000412D00C00040BCA5CE29C7FD5A2EF0BC0C
:10063000EC3F78A620268FFB6C2F09BAB13FB1A7FB
:100640003D2257F976304DB74F3F63A92B1E21F756
:100650007931BEB4C53E8EABEF19ECF474325EB2A4
:10066000153E2EAE9015B8F268332DB03F3D40B127
:10067000121187F053342EAE423CBEB47C0C58EEBF
:10068000373561AC213BA6B8D6072BEC1236C8AA89
:10069000DB39F0BC240302EAE53663A9713897C15F
:1006A0006EFEDCE7B03734A8E53695C6BAF9BAE590
:1006B00071383BA73735E2CB0FF59CE32B3978A691
:1006C000683378D173F082E1DB39EDA579314ED70B
:1006D000EDEB6DDF823A99A56C2F5DDD82E75DDD84
:1006E000213B7EA5412D9CE33AE352DBB63B99A525
:1006F000FB2A02EA19DF4DD9423CEDA59A2887F082
:1007000026DB4ED7C53C78A6202621F766D756D5DE
:100710003F3D3BA78E23C7FDDFD363D3AF3D34A856
:10072000E720710494D078D1153E63A92B1E140BD9
:100730008CCD94CF723EC8AA5D1BA811C9CAB7CD93
:10074000C53E61AC7E18241850C8E2CB0F3F2EAED8
:1007500090157E1E25C615CA4F3F2DB09412AE24AB
:100760004AC451C8853F5EB28D0FAA2AC1C295C640
:10077000B13FBEB47C0C6C308EC1E2C4D43F4DB7E7
:100780006409EB35B1C038C3EC3F09BA46061E3BDD
:100790002CC097C1FB3FF0BC2403202A04DB203A85
:1007A00021FA02F00021704721FA02F3D040C2F191
:1007B0002002914008431946704740EA01039B0715
:1007C00003D009E008C9121F08C0042AFAD203E0C6
:1007D00011F8013B00F8013B521EF9D27047D2B22A
:1007E00001E000F8012B491EFBD270470022F6E71A
:1007F00010B513460A4604461946FFF7F0FF204697
:1008000010BDF0B480EA0102D40F4200B2EB410FF8
:1008100002D20246084611464A0042D0C30DDDB25C
:10082000C1F3C752AD1A202D35DAC1F3160141F4D8
:10083000000204B15242C5F1200602FA06F12A4133
:100840001044B3EBD05F23D0C4B1012DA0EBC35053
:1008500009DCF0BC4FF0004202EAC352DBB200F503
:10086000000000F04ABA400000F1807000EBC35075
:10087000A0F1807040EAD170490009E0490841EADE
:10088000C071A0EBC35000F50000400800EBC3505E
:10089000F0BC00F029BA6142012202EB4101001BC9
:1008A000F6E7F0BC704781F00041AAE780F0004015
:1008B000A7E780EA010210B502F00043400022D011
:1008C0004A001FD0010E01EB1261C0F35600C2F3C3
:1008D000560240F4000042F40002A0FB0220000493
:1008E0007F39140400D0401C50EA124001D440006B
:1008F000491EC2B20C0604EBD010401C4008802AEE
:1009000002D003E0002010BD20F00100002900DA31
:100910000020184310BD30B480EA010202F0004507
:1009200030F0004221F0004013D090B1C30DD40D3F
:10093000C2F31601C0F31600E41A41F4000140F4BA
:1009400000027D34914201D3641C00E04900002C78
:1009500002DA30BC002070474FF4000000239142BF
:1009600001D3891A034340084FEA4101F7D151B13D
:10097000914202D14FF0004105E002D24FF0010157
:1009800001E06FF0010103EBC450284430BC00F0DB
:10099000ABB9420005D0C0F3C7525242914201DCCC
:1009A0000020704700EBC15070472DE9FE4F81EAEF
:1009B000030404F0004421F0004100944FF0000BC8
:1009C00023F0004350EA01045ED052EA03045BD0F6
:1009D000C3F30A54C1F30A552C44A4F2F33401942E
:1009E000A0FB0254C1F3130141F48011C3F31303BC
:1009F00043F4801301FB024400FB034E840A970A70
:100A000044EA815447EA8357A4FB076802958D0A9C
:100A100005FB07854FEA932C04FB0C542705029D28
:100A20004FEA065847EA1637B5EB08056EEB070C98
:100A3000870E920E47EA811742EA8312A7FB020152
:100A4000B6EB0B0164EB00042B0D43EA0C335E188C
:100A500044EB1C50DA465146E7FB0201C5F3130490
:100A60004FEA0B3343EA14534FEA0432019C43EA42
:100A70000603A4F10C040294009CCDE900B400F03C
:100A800079F903B0BDE8F08F00200146F9E72DE9C0
:100A9000F04D81EA030404F0004B21F000451446B8
:100AA0004FF0000A23F0004150EA050220D054EA3A
:100AB00001021DD0C5F30A570246C5F31303C1F363
:100AC0001300C1F30A5640F4801543F48013A7EBDA
:100AD0000608101BD64608F2FD3873EB050002D35A
:100AE00008F1010801E092185B41B8F1000F03DA48
:100AF00000200146BDE8F08D00204FF4801106462D
:100B000084460EE0171B73EB050705D3121B63EB3E
:100B1000050306434CEA010C49084FEA30009218DD
:100B20005B4150EA0107EDD152EA030012D082EA9C
:100B3000040083EA0501084305D0101BAB4106D22F
:100B40000122002306E000224FF0004302E06FF094
:100B5000010253101AEB06004CEB085110EB0A008F
:100B600041EB0B01BDE8F04D00F0F5B870B521F098
:100B7000004303430CD0C1F30A550024D5EB040510
:100B800064EB0403D617AD1AB34102DB0020014623
:100B900070BD201841EB025170BDC10F80EAE070BA
:100BA0000844CA079623002100F0A7B80EB5C10F6C
:100BB00080EAE0700844CA07002140F233438DE820
:100BC0000E000A460B4600F0D5F803B000BD20F039
:100BD0000040C10DC0F3160040F400007F2901DA87
:100BE00000207047962903DCC1F19601C840704788
:100BF000963988407047C1F30A5210B5C1F313010A
:100C000040F2FF3341F480119A4201DA002010BD16
:100C100040F233439A42A2F2334203DC5242FFF7DE
:100C2000BCFD10BD904010BD00F0004230F000400F
:100C30000AD0C10D01F56071C0F3160042EA0151FE
:100C4000C20840071143704700200146704700006A
:100C500030B5041E71F1000404DB4FF00044404243
:100C600064EB0101141E73F1000405DB1C464FF018
:100C70000043524263EB04038B4208BF824230BD03
:100C800030B5041E71F1000404DB4FF00044404213
:100C900064EB0101141E73F1000405DB1C464FF0E8
:100CA0000043524263EB0403994208BF904230BDB7
:100CB00001F0004330B421F0004150EA010206D0B7
:100CC0000A0DA2F56072C1F31301002A02DC30BCE8
:100CD00000207047440F44EAC104C100E01830BC52
:100CE00000EBC250AFF300800029A8BF7047401C42
:100CF000490008BF20F00100704710B4B0FA80FC32
:100D000000FA0CF050EA010404BF10BC704749B16E
:100D1000CCF1200421FA04F411FA0CF118BF0121DE
:100D200021430843A3EB0C01CB1D4FEA00614FEABE
:100D3000102042BF002010BC704700EBC35010448D
:100D40000029A4BF10BC7047401C490008BF20F018
:100D5000010010BC704710B5141E73F1000408DACE
:100D6000401C41F1000192185B411A4301D120F06F
:100D7000010010BD2DE9F04D92469B4611B1B1FA2C
:100D800081F202E0B0FA80F22032904600F0A4F83E
:100D900004460F4640EA0A0041EA0B0153465A4610
:100DA000084313D0114653EA010019D0C8F140029C
:100DB0005046FFF7F2FC05460E465046594642465D
:100DC00000F08AF8084305D0012004E020463946A7
:100DD000BDE8F08D0020054346EAE0762C4337431A
:100DE0000A986305E40AA0EB08000022FD0A44EA21
:100DF00047540A3002D500200146E9E701051019E1
:100E00006941DDE9084500196941BDE8F04DA2E7F7
:100E10002DE9F04D00231A461B1A8A4103DB0020FE
:100E20000146BDE8F08DC1F30A52C1F3130141F44C
:100E300080154FF0000BD10702D100186D41521EF2
:100E40000027044640F2FF11384601EB620A3E4695
:100E50008046024600204FF48011FFF79EFCC21925
:100E60007141BB1846EB0100B4EB030C75EB000CB1
:100E700004D3E41A65EB000517460E46241908F161
:100E800001006D4180463428E3DDF91946EB060088
:100E9000091BA84103D24FF0FF32134601E00022A4
:100EA00013461BEB070046EB0A51BDE8F04DFFF778
:100EB00052BF0000064C074D06E0E06840F0010319
:100EC00094E8070098471034AC42F6D3FFF712F9C4
:100ED0002450000844500008202A04DB203A00FA7D
:100EE00002F1002070479140C2F1200320FA03F381
:100EF000194390407047000070B50446006881684F
:100F0000C943C9071CD1816821F00101816000F04B
:100F100017FD05460FE000BF00F012FD401B022840
:100F200009D9A06A40F01000A062E06A40F0010018
:100F3000E062012070BD20688068C043C007EBD02C
:100F4000002070BD10B50146406A826A12F0500F51
:100F500005D0006A026BBDE8104008461047816A60
:100F600041F40071816201688968C1F34241072937
:100F70000CD1017B51B9816A21F480718162816A4F
:100F8000C90403D4816A41F00101816200F00AF9C9
:100F900010BD10B5406A816A41F040018162C16AAA
:100FA00041F00401C16200F008F910BD10B5406ABB
:100FB00000F002F910BD0000F8B5002604460096C6
:100FC00000688168C943C90728D0816841F00101E0
:100FD0008160134813490068B0FBF1F000E0401E47
:100FE00000900028FBD100F0ABFC054611E000BFEB
:100FF00000F0A6FC401B02280BD9A06A40F01000AC
:10100000A062E06A40F00100E06284F82460012000
:10101000F8BD20688068C043C007E9D10020F8BD52
:101020001800002040420F00FEE70000014800F0D9
:101030006FBA0000AC01002030B590F84050012498
:10104000AC40C56B6C60046863604368102B036838
:1010500003D099600068C26030BD9A600068C160CA
:1010600030BD704772B6FEE708B50B4800F002FAD3
:101070000A4801F03DFA0A486946006803F09CF905
:101080000098002807D007494FF080500860BFF350
:101090004F8FBFF36F8F08BD9C00002024010020FC
:1010A0009400002004ED00E0F8B50024009490F8CE
:1010B00024202546012A12D0012280F824204A68E3
:1010C0001F23072A0DD20668776B521E02EB82029D
:1010D00093409F430B6893401F43776319E00220BE
:1010E000F8BD06680D2A0AD2376BD21F02EB8202C6
:1010F00093409F430B6893401F43376309E0F76AAF
:101100000D3A02EB820293409F430B6893401F43CA
:10111000F7620A68072306680A2A0AD3F7680A3AB8
:1011200002EB420293409F438B6893401F43F7605A
:1011300008E0376902EB420293409F438B6893407B
:101140001F4337610A68102A01D0112A20D1124B9F
:1011500002689A4217D193681B0219D4936843F42A
:10116000000393600968102912D10C490C4A0968E0
:10117000B1FBF2F101EB8101490000E0491E009151
:101180000029FBD104E0816A41F020018162012441
:1011900080F824502046F8BD0024014018000020AB
:1011A00040420F0000680349884201D1FFF75CBF4D
:1011B0007047000000240140704770472DE9F0415E
:1011C0004FF0000704003D467ED0A06A002628B9F3
:1011D000E66284F82460204600F07EF82046FFF79F
:1011E0008BFEA16AC90600D420B1A06A40F01000AD
:1011F000A06269E0A16A21F4885141F00201A16274
:101200006268E169237B0A4347EA43010A43A16814
:101210004FF48077B94209D0012907D05FF000016F
:1012200094F814C0BCF1010F02D00AE03946F7E788
:10123000F3B1A36A43F02003A362E36A43F001031E
:10124000E3622368D3F804C02CF4694C4CEA010C27
:10125000C3F804C021688B68DFF870C003EA0C0390
:1012600013438B60A168B9420BD0012909D00CE06F
:10127000DFF85CC0A3690CEB43330B4343F400611C
:10128000DFE7218A0D05A5F580152168CB6A23F4D7
:1012900070032B43CB62216889680E4B1940914241
:1012A00008D1E662A16A21F0020141F00101A162C8
:1012B000BDE8F081A06A20F0020040F01000A062BA
:1012C000E06A40F00100E0620120F1E7FDF7E1FF94
:1012D00000E0FFFFFE0E1FFF70B586B0002506463A
:1012E000009501950295039500681A4988422ED110
:1012F0001949886940F400708861886900F40070B9
:101300000490886940F0040088618869694600F0AB
:101310000400049001200090032001900F4800F089
:1013200019FA104C0E48C4E900058020C4E90250A7
:1013300080002061800060612020C4E9060520460D
:1013400000F090F908B1FFF78DFE3462666206B0D6
:1013500070BD000000240140001002400008014060
:1013600008000240AC0100202DE9F0478946044600
:101370003B4900683B4F0E1D9046884201D0B84261
:1013800007D1306810F4702F03D001252846BDE83E
:10139000F08794F8240001280CD0012084F8240060
:1013A0002046FFF709FE05004FF0000004D084F846
:1013B0002400EBE70220EAE7A16A40F601629143CC
:1013C00041F48071A1622168B94218D1326812F4E7
:1013D000702F14D0A16A41F48011A16231684905CF
:1013E00005D5A16A21F4005141F48051A162A16A9E
:1013F000C9040AD5E16A21F00601E16206E0A26AA9
:1014000022F48012A2624968E9E7E06284F82400CD
:10141000216A15488862216A1448C862216A144802
:10142000086321686FF0020008602068816841F459
:1014300080718160216843464A464C31206A00F041
:101440003FF920688168C1F342410729816803D0D0
:1014500041F48011816099E741F4A001FAE70000AE
:101460000024014000280140450F0008AD0F00088E
:10147000930F000810B5044690F82400012807D007
:10148000012084F824002046FFF736FD10B113E058
:10149000022010BD21688A6822F480728A60216A65
:1014A00091F82120022A07D1084600F00EF8A16A1F
:1014B00030B141F04001A162002184F8241010BD38
:1014C00021F4885141F00101F5E710B590F82110A1
:1014D0000022022905D00421816380F82020012008
:1014E00010BD01680B6823F00E030B6001680B68E8
:1014F00023F001030B6090F84030C46B012101FA26
:1015000003F3636080F8211080F82020104610BD9E
:101510002DE9F05FC16B0C6801680B68D0F840C022
:10152000042202FA0CF2494DDFF824A1494E4A4F39
:10153000DFF828B1DFF828E122422CD05A072AD55B
:101540000A68920603D40A6822F004020A6001685D
:10155000A94201D1042219E0514501D1402215E0F0
:10156000B14202D14FF4806210E0B94202D14FF48F
:1015700080420BE0594502D14FF4802206E07145CC
:1015800002D14FF4800201E04FF080622F49083908
:101590004A60C16A3BE04FF0020808FA0CF818EA0A
:1015A000040F4FF000094FF0010235D05FEA837855
:1015B00032D50B689B0605D40B6823F00A030B6039
:1015C00080F821200168A94201D1022219E0514589
:1015D00001D1202215E0B14202D14FF4007210E097
:1015E000B94202D14FF400520BE0594502D14FF4F9
:1015F000003206E0714502D14FF4001201E04FF0D5
:101600000072124908394A6080F82090816A0029E6
:101610001AD0BDE8F05F0847082505FA0CF5254209
:1016200012D01B0710D50B6823F00E030B6090F847
:101630004010C36B02FA01F15960826380F82120E7
:1016400080F82090016BE2E7BDE8F09F08000240BF
:101650001C0002403000024044000240580002409A
:101660006C00024030B528B308C81349142219444D
:10167000B1FBF2F18900C163104981630221417716
:101680001A6843F6F0718A43D0E900142143D0E987
:1016900002452C4321430469214344692143846961
:1016A00021431143196000214163012242770177F0
:1016B000084630BD012030BDF8FFFDBF00000240EC
:1016C00070B5044690F82000002501280CD00120B8
:1016D00084F8200094F821600020012E06D084F8C0
:1016E00020000225284670BD022070BD022684F825
:1016F0002160A0632068066826F001060660204687
:10170000FFF79AFCE06A00282068016802D041F0E7
:101710000E0106E021F0040101602068016841F03B
:101720000A0101602068016841F001010160D9E708
:1017300070B5044600F004F90546601C02D0044868
:101740000078044400F0FCF8401BA042FAD370BDBE
:101750000C0000202DE9F84FDFF8B891002409F1C2
:10176000040A0AF1040B23460F270BF1040EC9E00B
:101770000125A5402A40AA427DD1674ED1F804C078
:10178000ACEB0608B44532D014DCBCF1030F3AD000
:1017900009DCBCF1000F2AD0BCF1010F1CD0BCF158
:1017A000020F31D11DE0BCF1110F17D0BCF1120FA7
:1017B0002AD119E0B8F5881F19D006DCB8F5803FAA
:1017C00015D0B8F5801F1FD111E0B8F5001F0ED05D
:1017D000B8F5041F18D10AE0CB6815E0CB681B1DD3
:1017E00012E0CB6808330FE0CB680C330CE08B6859
:1017F0002BB1012B4FF0080303D0456104E0042313
:1018000002E0056100E00023FF2A01D8064601E05E
:1018100000F104064FEA840501D9A5F12005D6F8A8
:10182000008007FA05FC28EA0C0803FA05F548EAE7
:101830000508C6F800804D68ED0062D5374DAE69E9
:1018400046F00106AE61AD6924F0030605F001051E
:101850000095334D06EB050CDCF80850A607360F53
:1018600007FA06F825EA0805DFF8B880404503D1F5
:101870004FF0000817E044E0DFF8AC80404502D1AB
:101880004FF001080FE0DFF8A480404502D14FF08F
:10189000020808E0DFF89880404502D14FF00308C5
:1018A00001E04FF0040808FA06F848EA0508CCF809
:1018B00008804D68D9F80060ED034D4601D5164308
:1018C00000E096432E604D68DAF80060AD0355469F
:1018D00001D5164300E096432E604D68DBF80060AA
:1018E000ED025D4601D5164300E096432E604D683B
:1018F000DEF80060AD02754601D5164300E0964360
:101900002E60641C0D682A46E5407FF431AFBDE8C7
:10191000F88F000000040140000011100010024088
:101920000000014000080140000C0140001001408F
:10193000001401400AB1016170470904FBE700008F
:1019400001488068704700000C0000200248816850
:1019500002781144816070470C000020074810B5E0
:10196000016841F010010160032000F095F80020AB
:1019700000F006F800F03EF8002010BD0020024004
:1019800000B5014687B000221C2000F065F81C203D
:1019900000F054F81448C16941F00101C161C06907
:1019A00005A900F001000690684600F093F900F0E8
:1019B000B1F90E494000B0FBF1F10D484FF0804203
:1019C000491E0260416040F2E7320021C0E9032174
:1019D000816000F0F7FC10B1012007B000BD0448A1
:1019E00000F05AFDF9E700000010024040420F00ED
:1019F000F00100200F4808B5816941F001018161C3
:101A0000816901F001010091C16941F08051C1611A
:101A1000C069002200F0805000900F21901E00F05D
:101A20001BF80548416821F0E06141F080614160A8
:101A300008BD00000010024000000140002809DB42
:101A400000F01F02012191404009800000F1E020D8
:101A5000C0F8001170470000F0B40E4B1B680C4634
:101A6000C3F30223C3F10705042D00D90425191D72
:101A7000072901D2002300E0DB1E012606FA05F14A
:101A8000491E214099409E40761E16403143F0BCCD
:101A900001F0E7B80CED00E0064900F00702086825
:101AA0004FF6FF03184040EA0220034A1043086043
:101AB000704700000CED00E00000FA052DE9F84346
:101AC00005460078354CC00754D0E0690026C000B8
:101AD00008D4E06940F08050E061E069012600F040
:101AE000805000902E480168C90512D401688046D4
:101AF00041F480710160FFF723FF074605E000BF56
:101B0000FFF71EFFC01B642823D8D8F80000C005CB
:101B1000F6D5206A10F4407021D0A98801F44071F4
:101B200081421CD0206A1F49012220F440700A60C3
:101B300000220A602062C00711D0FFF701FF0746AC
:101B400041F2883808E000BFFFF7FAFEC11B4145AB
:101B500002D90320BDE8F883206A8007F4D5206A03
:101B6000696820F44070084320621EB1E06920F0EB
:101B70008050E0612878800705D56068A96820F466
:101B80004040084360602878C00605D56068E96871
:101B900020F48000084360600020DBE70010024072
:101BA00000700040400442422DE9F0470F46050016
:101BB00061D0434E306800F00700B84209D2306867
:101BC00020F0070038433060306800F00700B8426A
:101BD00051D128683B4C810712D5400703D5606876
:101BE00040F4E06060602878000703D5606840F446
:101BF000605060606068A96820F0F0000843606091
:101C00002878C00728D06868012810D021680228E9
:101C100010D0890700292EDA616821F00301014301
:101C20006160FFF78DFE804641F288390DE0216842
:101C30008903EFE78901EDE7FFF782FEA0EB0801DA
:101C4000494502D90320BDE8F0876068696800F063
:101C50000C00B0EB810FEFD1306800F00700B84204
:101C60000BD9306820F0070038433060306800F04E
:101C70000700B84201D00120E5E72878400705D5E4
:101C80006068E96820F4E060084360602878000735
:101C900006D56068296920F4605040EAC1006060A0
:101CA00000F058F86168084AC1F30311515CC8405C
:101CB0000649086006480068FFF762FE0020C2E798
:101CC00000200240001002406C4F00081800002065
:101CD000100000200F2202600C4A536803F0030337
:101CE0004360536803F0F0038360536803F4E063D8
:101CF000C36052684FF4E06303EAD2020261044811
:101D0000006800F007000860704700000010024003
:101D1000002002400448054900684968044AC1F3AC
:101D20000221515CC840704718000020001002409A
:101D30007C4F00080448054900684968044AC1F31B
:101D4000C221515CC84070471800002000100240BA
:101D50007C4F000812A185B00FC98DE80F0014A0B8
:101D6000144A006804905168134801F00C03042BD6
:101D700010D0082B0ED1C1F38343C9031DF8030013
:101D80000AD5516804AAC1F34041515C0A4A504344
:101D9000B0FBF1F005B0704708494843FAE700008E
:101DA00002030405060708090A0B0C0D0E0F10109C
:101DB000010200000010024000127A0000093D00FC
:101DC0002DE9F84F040070D02078C04DC00749D0ED
:101DD0006868C0F38100012807D06868C0F38100FB
:101DE000022809D16868C00306D52868800339D560
:101DF00060680028E7D035E06068B0F5803F0BD020
:101E000010B1B0F5A02F11D0286820F480302860E0
:101E1000286820F4802002E0286840F480302860A0
:101E2000606890B1FFF78CFD06460AE0286840F430
:101E300080202860F0E700BFFFF782FD801B642848
:101E400073D828688003F7D50CE0FFF779FD0646C4
:101E500005E000BFFFF774FD801B6428F0D82868F8
:101E60008003F7D420789A4E80074FF001094FF095
:101E7000000839D5686810F00C0F07D06868C0F307
:101E80008100022809D16868C00306D42868800749
:101E900014D52069012808D110E02069B0B1C6F836
:101EA0000090FFF74DFD074605E00AE1FFF748FD0A
:101EB000C01B0228C4D828688007F7D52868616944
:101EC00020F0F80040EAC10028600DE0C6F800806C
:101ED000FFF736FD074604E0FFF732FDC01B02287E
:101EE00023D828688007F7D4207800072CD57948B4
:101EF000A169D9B1C0F80090FFF722FD074604E0C0
:101F0000FFF71EFDC01B02280FD8686A8007F7D5AF
:101F100071484FF4FA510068B0FBF1F0009000BF37
:101F20000098411E0091FAD20EE080E0C0F80080D7
:101F3000FFF706FD074604E0FFF702FDC01B02287D
:101F400075D8686A8007F7D42078400760D5E869BB
:101F50000027C00008D4E86940F08050E861E869D3
:101F6000012700F0805000905C480168C90513D437
:101F70000168834641F480710160FFF7E1FC82460D
:101F800006E000BFFFF7DCFCA0EB0A0064284ED897
:101F9000DBF80000C005F5D5E06801280AD008B1DB
:101FA000052813D0286A20F001002862286A20F052
:101FB000040002E0286A40F001002862E06841F273
:101FC000883B98B1FFF7BCFC82460BE0286A40F0E2
:101FD00004002862EEE700BFFFF7B2FCA0EB0A01A5
:101FE00059455AD8286A8007F6D50CE0FFF7A8FCB7
:101FF000824605E0FFF7A4FCA0EB0A0159454CD846
:10200000286A8007F6D41FB1E86920F08050E861A3
:10201000E06988B36968C1F38101022944D00228CC
:10202000C6F8608004D0FFF78BFC044638E034E04B
:10203000FFF786FC074604E0FFF782FCC01B02287E
:102040002BD828688001F7D4206AB0F5803F05D1ED
:102050006868A16820F4003008436860D4E908018A
:102060000843696821F4741108436860C6F86090F9
:10207000FFF766FC044606E025E000BFFFF760FCC2
:10208000001B022809D828688001F7D51BE000BF93
:10209000FFF756FC001B022802D90320BDE8F88F89
:1020A00028688001F4D40EE00128F7D06868226A1D
:1020B00000F48031914204D1616A00F470108842CA
:1020C00001D00120EAE70020E8E70000001002400C
:1020D000000042428004424218000020007000408C
:1020E00070B5040009D0606A002540B125616561C2
:1020F000A56294F8510040B10CE0012070BD606809
:10210000B0F5827FF4D0E561F2E784F850502046C4
:1021100000F040F8022084F851002068016821F0A6
:1021200040010160A088218900F4827001F404411B
:102130000843A18901F400610843217C01F00201F8
:102140000843217D01F001010843218B01F4007156
:102150000843217F01F03801084394F8201001F072
:1021600080010843218D01F4005108432168086073
:10217000A069042101EA1040216848602068C16913
:1021800021F40061C1616565012084F851000020DF
:1021900070BD000000B585B0002100910191029151
:1021A000039100680F4988421AD10F48816941F4B0
:1021B00080518161816901F480510491816941F00C
:1021C000040181618069694600F004000490A02048
:1021D000009002200190032003900448FFF7BAFA10
:1021E00005B000BD00300140001002400008014071
:1021F0002DE9F84F044690F8500000271D4616467A
:10220000894601280DD04FF0010B84F850B0FFF73C
:1022100097FB804694F85100BA46012804D0022763
:1022200093E00220BDE8F88FB9F1000F73D0002EC3
:1022300071D0032084F85100C4F854A0C4F8309041
:10224000A686E686C4F838A0A4F83CA0A4F83EA070
:10225000C4F844A0C4F840A0A068B0F5004F09D16C
:102260002068016821F0400101602068016841F4A4
:102270008041016020680168490603D4016841F08B
:1022800040010160E068B0F5006F606803D030B3D2
:10229000012E24D041E008B1012E1CD1206B216811
:1022A0000088C86006E020688168890709D5216B2D
:1022B0000988C160206B801C2063E08E401EE08690
:1022C00009E0FFF73DFBA0EB0800A84202D3681C21
:1022D00001D031E07DB3E08E0028E4D120E0206B16
:1022E00021680078087306E020688168890709D5AD
:1022F000216B09780173206B401C2063E08E401E27
:10230000E0860AE0FFF71CFBA0EB0800A84203D31D
:10231000681C02D010E017E06DB1E08E0028E3D118
:1023200042462946204600F009FB08B1202060659E
:10233000A06818B106E0FFE7032706E02068C1683F
:1023400080680090606D00B1012784F851B084F876
:1023500050A0384666E770477047000070B590F8A7
:102360003C20012A26D0012480F83C40022280F83B
:102370003D2003685A689D6822F070060A6832435F
:102380005A600D4B02689A4208D0B2F1804F05D0D6
:102390000A4B9A4202D00A4B9A4204D1496825F06E
:1023A00080031943916080F83D40002180F83C1083
:1023B000084670BD022070BD002C014000040040A2
:1023C0000008004010B5040003D094F83D0010B19F
:1023D00007E0012010BD002084F83C00204600F0FA
:1023E0001FF8022084F83D00211D206800F070FBDA
:1023F000012084F8460084F83E0084F83F0084F809
:10240000400084F8410084F8420084F8430084F8D6
:10241000440084F8450084F83D00002010BD000011
:1024200008B500680649884208D10648C16941F0EC
:102430000201C161C06900F00200009008BD000007
:10244000000400400010024090F83D10012901D026
:1024500001207047022180F83D1000680B49884236
:1024600008D0B0F1804F05D00949884202D009490F
:10247000884204D1816801F00701062903D0016870
:1024800041F001010160002070470000002C014074
:10249000000400400008004090F83D10012901D0E0
:1024A00001207047022180F83D100168CA6842F09F
:1024B0000102CA6000680B49884208D0B0F1804F21
:1024C00005D00949884202D00849884204D1816870
:1024D00001F00701062903D0016841F00101016004
:1024E00000207047002C014000040040000800401C
:1024F00001680A6A41F211131A4207D10A6A9B1055
:102500001A4203D10A6822F001020A60012180F810
:102510003D100020704770B5044690F83C0001283B
:1025200017D0012584F83C50022084F83D00206833
:10253000826822F0770222F47F4282600868502885
:1025400030D00DDC20284DD005DC98B310283BD1CD
:1025500048E0022070BD302844D0402834D139E012
:10256000602828D0702806D0B0F5805F2CD0B0F558
:10257000005F29D10AE0CB68D1E90121206800F091
:10258000DDFA2068816841F0770109E0CB68D1E984
:102590000121206800F0D2FA2068816841F480416E
:1025A000816011E0CA684968206800F0D9FA5021BA
:1025B000206807E016E0CA684968206800F0E1FA80
:1025C0006021206800F0C4FA84F83D50002084F8AF
:1025D0003C0070BDCA684968206800F0C1FA40211B
:1025E0002068EFE7226801461046EBE7704770B5B8
:1025F0000446006801694FF00005C943890715D4F6
:10260000C168C943890711D4E91E016101202077FF
:10261000206880698007204602D0FFF7E7FF04E0CA
:1026200000F098F8204600F096F8257720680169B8
:10263000C943490717D4C168C943490713D46FF088
:1026400004010161022020772068806910F4407F36
:10265000204602D0FFF7CAFF04E000F07BF82046D6
:1026600000F079F8257720680169C943090716D475
:10267000C168C943090712D46FF008010161042041
:1026800020772068C0698007204602D0FFF7AEFFA0
:1026900004E000F05FF8204600F05DF82577206840
:1026A0000169C943C90617D4C168C943C90613D40F
:1026B0006FF010010161082020772068C06910F4D4
:1026C000407F204602D0FFF791FF04E000F042F87F
:1026D000204600F040F8257720680169C943C90702
:1026E00008D1C168C943C90704D1891E01612046C8
:1026F00000F032F820680169C943090609D4C168AD
:10270000C943090605D46FF0800101612046FFF737
:1027100022FE20680169C943490609D4C168C9433A
:10272000490605D46FF040010161204600F01BF816
:1027300020680169C94389060BD4C168C943890669
:1027400007D46FF0200101612046BDE87040FFF71B
:1027500003BE70BD704770470068B0F1804F01D173
:10276000FFF7F4B87047704770B5040004D094F8D0
:102770003900002510B106E0012070BD84F8385002
:10278000204600F023F8242084F839002068C1682E
:1027900021F40051C160204600F006FA206801696A
:1027A00021F4904101612068416921F02A014161D1
:1027B0002068C16841F40051C160E563202084F8BD
:1027C000390084F83A00002070BD000030B585B0B3
:1027D00000240094019402940394006814498842F0
:1027E00024D11448816941F480418161816901F4F7
:1027F00080410491816941F00401816180690E4D3D
:1028000000F0040004904FF400700090022001904A
:102810000320039069462846FEF79CFF2815CDE962
:102820000004694628460294FEF794FF05B030BDC7
:10283000003801400010024000080140FEE700009F
:102840003EB5002410480094019402940D49846020
:10285000016004730475012505614FF40021446093
:10286000C161FEF7ABFC08B172B6FEE7CDE90045E9
:10287000694605480294FEF717FC002801D072B69D
:10288000FEE73EBD002401409C0000200F4810B52B
:102890000D4901604FF48271416000218160C16087
:1028A0004FF400720161C0E905120822C0E9072156
:1028B000416281620A21C162FFF712FC002801D047
:1028C00072B6FEE710BD000000300140CC000020D1
:1028D00010B586B000241748009401940294039424
:1028E00004941349059401604721C0E9011464214F
:1028F000C0E903148461FFF765FD08B172B6FEE715
:102900004FF48050009069460A48FFF704FE08B172
:1029100072B6FEE72020CDE9040404A90548FFF7BC
:102920001DFD002801D072B6FEE706B010BD000004
:102930000004004024010020FEE7FEE738B50B4606
:10294000009204460022802100F008F8002804D0FC
:10295000606D40F020006065032038BD2DE9F8432C
:102960001E46914688460446089DFEF7E9FF401B37
:10297000351AFEF7E5FF074625480068C0F3CB305F
:10298000684338E0701C37D0FEF7DAFFC01BA8425E
:1029900003D215B1009860B32CE02068416821F0A3
:1029A000E00141606068B0F5827F0BD1A068B0F5AE
:1029B000004F02D0B0F5806F04D12068016821F08B
:1029C00040010160A06AB0F5005F09D1206801688C
:1029D00021F4005101602068016841F40051016058
:1029E000012084F85100002084F850000320BDE845
:1029F000F8830025401E00902068816838EA0100B5
:102A000004D000214945BDD10020F0E70121F9E7BC
:102A100018000020012000F049FEFBE710B550200F
:102A200080F31188BFF34F8FBFF36F8F02F0EAF886
:102A300018B104494FF080500860002080F31188DD
:102A400010BD000004ED00E030B593B028216846C9
:102A5000FDF7CCFE14210AA8FDF7C8FE00240225CC
:102A600001200F94049000951020059012944FF4CB
:102A70006010CDE908401194109407956846FFF75F
:102A80009FF908B172B6FEE70F20CDE90A054FF4B1
:102A90008060CDE90C4002210AA80E94FFF784F86B
:102AA00008B172B6FEE74FF4404011900F950FA8A1
:102AB000FFF704F8002801D072B6FEE713B030BD6E
:102AC000704700000148FFF792BD0000F0010020B0
:102AD000F0B50268164B174C174D4FF080479842DF
:102AE00005D0B84203D0A04201D0A84203D122F0C1
:102AF00070064A683243984205D0B84203D0A042DB
:102B000001D0A84203D122F44074CA6822434C6920
:102B100022F08002224302608A68C2620A688262EE
:102B2000984201D10969016301214161F0BD0000B2
:102B3000002C0140000400400008004010B58468EB
:102B400042EA032224F47F440A432243826010BDF8
:102B5000826822F070020A4342F0070181607047E8
:102B600010B5036A046A24F001040462846924F045
:102B7000F00444EA021423F00A020A438461026268
:102B800010BD10B5036A23F0100303628369046A61
:102B900023F4704343EA023224F0A00343EA011114
:102BA0008261016210BD000070B5044600680169D1
:102BB000E26821F44051114301612169A068084392
:102BC000616908432168CA6841F20C639A43024371
:102BD000CA6020684169A26921F4407111434161D2
:102BE0001E492068884202D1FFF7A4F801E0FFF7F0
:102BF00091F800EBC00101EB0012606864218000D5
:102C0000B2FBF0F3B3FBF1F36FF018067343B2FBC2
:102C1000F0F5B2FBF0F605EB8305322303EB051567
:102C2000B5FBF1F5B6FBF1F605F0F00505EB061581
:102C3000B2FBF0F6B2FBF0F0B0FBF1F06FF018026F
:102C4000504306EB800003EB0010B0FBF1F021686D
:102C500000F00F002844886070BD0000003801407B
:102C6000FEE70907090E002804DB00F1E02080F8E8
:102C70000014704700F00F0000F1E02080F8141DF0
:102C8000704702E008C8121F08C1002AFAD1704735
:102C90007047002001E001C1121F002AFBD17047DC
:102CA0000149086070470000980000202DE9F041BC
:102CB00000F0D4FB114F012407F5007637F824000B
:102CC000C0F387053F2D00D93F252A460021204625
:102CD00000F042FC315DA94201D2355507E00122E6
:102CE000204600F039FC305D08B1401E3055641CB0
:102CF000E4B2802CE2D3BDE8F08100000C35002066
:102D00002DE9F04100F0AAFB194F012407F50076E8
:102D100037F82400C0F387051F2D00D91F252A4648
:102D20002021204600F018FCC5F1200081B22A467F
:102D3000204600F011FC315DA94201D2355510E06A
:102D400001222046203100F007FC305D0122C0F155
:102D50001F0081B2204600F0FFFB305D08B1401E2D
:102D60003055641CE4B2802CD2D3BDE8F081000061
:102D70000C3500202DE9FC5F002700F06FFBDFF829
:102D800098B10126654850F82600FDF74DFF0D4625
:102D9000634906EB4718044631F828002946C0F37A
:102DA00087092046FDF784FF02464B4601A9684685
:102DB00000F0E2F9BDF800003C2814D90022594B7C
:102DC00020462946FDF744FF0DD83C20ADF8000011
:102DD00022462B4600205449FDF7E7FDFDF70BFF87
:102DE000ADF8040017E0BDF804001E2813D9002236
:102DF0004C4B20462946FDF743FF0CD21E20ADF870
:102E0000040022462B4600204849FDF740FEFDF70E
:102E1000F2FEADF8000037B1012F08D0022F25D007
:102E2000032F0DD12CE0BDF8040020302CE0BDF8BC
:102E3000040020301EE082B22021402000F022FB5E
:102E4000BDF80010BDF80400494300FB0010FDF779
:102E5000ADFE01F0F3F8FDF7CEFE1BF808A0C0B2FE
:102E6000D946824515D209F8080048E0BDF80400AB
:102E7000C0F1200083B2BDF80000C0F14000DAE7E5
:102E8000BDF80400C0F1200083B2BDF8000040305E
:102E9000D1E720462946FDF70BFF02464C46534634
:102EA00001A9684600F068F914F8080010B1401E46
:102EB00004F8080037B1012F08D0022F0AD0032FE1
:102EC0001DD111E0BDF80400203011E0BDF8040070
:102ED000203003E0BDF80400C0F1200081B2BDF84D
:102EE0000000C0F1400007E0BDF80400C0F1200080
:102EF00081B2BDF80000403080B200F01DFB761CAE
:102F0000F6B2202EFFF43EAF7F1C0026FFB2042F46
:102F1000F8D3BDE8FC9F00000C370020984F000854
:102F20000C3500200000E03F00004E4000003E4015
:102F30002DE9FF5F0027B946BA460397029700F0D4
:102F40008DFADFF8C4B10124BFB3012F3AD0022FAC
:102F500034D0032F04D135E0FDF766FE05460E465A
:102F600004EB471106205BF82110B1FBF0F01030A4
:102F700000F0FF0828463146FDF79AFE0246434618
:102F800001A9684600F0F8F8BDF800003C281FD9F8
:102F900000225E4B28463146FDF75AFE18D83C20E9
:102FA000ADF800002A46334600205949FDF7FDFCE4
:102FB000FDF721FEADF8040022E0FFE7554850F888
:102FC0002400C9E75348C4F11F0150F82100C3E7AA
:102FD000BDF804001E2813D900224C4B2846314668
:102FE000FDF74EFE0CD21E20ADF804002A463346F3
:102FF00000204949FDF74BFDFDF7FDFDADF8000050
:10300000012C00D13FB197B1012F20D0022F50D019
:10301000032F35D160E0BDF80000403080B281461A
:103020000390BDF80400203080B282460290BDF8C3
:1030300004005146203083B2BDF80000403082B217
:10304000484600F01FFABDF80000403010E0BDF81F
:1030500004005146203083B2BDF80000C0F14000AA
:1030600082B2484600F00EFABDF80000C0F1400000
:103070001FFA80F9BDF8040010F120001FFA80FA51
:10308000641CE4B2202CFFF45FAF7F1C0024FFB26D
:10309000042FF8D3BDF80400C0F1200083B2BDF8BE
:1030A0000000403082B2DDE9021000F0EBF9BDE82B
:1030B000FF9FBDF804005146C0F1200083B2BDF867
:1030C0000000C0F1400082B2484600F0DBF9BDF8D4
:1030D0000000C0F140000FE0BDF804005146C0F10F
:1030E000200083B2BDF80000403082B2484600F0B4
:1030F000C9F9BDF8000040301FFA80F9BDF804009E
:10310000C0F12000BAE700000C3500200000E03FCD
:1031100000004E40984F000800003E402DE9F04767
:1031200000252E46A846202700F098F9DFF84490A5
:103130004FF0060A13E0EDB259F82510B1FBFAF092
:10314000C4B21F2C00D91F2476B100262034234698
:103150002A463946404600F095F9A8462746AD1C58
:10316000802DE8D3BDE8F087C4F1200084B20126A9
:10317000EDE700000C3500202DE9F0410E46074632
:1031800011461C4690460846FDF793FB4FF07E51D2
:10319000FDF737FB054604FB04F0FDF7FEFC29466E
:1031A000FDF7B9FBFDF740FD00F048FF04460D4672
:1031B000FDF721FD38804046FDF736FD22462B46BF
:1031C000FDF7F3FBFDF717FD3080BDE8F08100004F
:1031D0002DE9F0472E49002001F5806231F82030BA
:1031E0001B0442F82030401C80B2FF28F6D9294940
:1031F0004FF4807201F58060FCF7E0FFDFF8988003
:1032000000246FF00E076FF0070A08F5007900BF81
:1032100058F8241008B20E14FDF7BFFC0821FDF782
:10322000B8FB3946FDF7B5FB05463046FDF7B5FC62
:103230000821FDF7AEFB3946FDF7ABFB0146FDF774
:1032400038FB064629460846FDF733FB3146FDF7B5
:10325000D8FAFDF7E9FC00F0F1FE5246FDF786FCD6
:10326000FDF726FD64B11021FDF793FBFDF7AFFCE0
:1032700049F82400641CA4B2802CC9D3BDE8F087AF
:103280000F21FDF786FBFDF7A2FCC9F80000F1E76E
:103290000C2B00200C2F00200C3300201D4E00258D
:1032A0004FF480782C4642461B491C483768FEF78D
:1032B0005BF81B48FFF7C8F84FF0FF39494601207B
:1032C00000F0E2FE0028F9D0FFF782FF42461249E3
:1032D0001248FEF749F81248FFF7B6F8002000F050
:1032E000CBF8B847012000F0C7F86D1CADB2C82D6F
:1032F000E4D3641CE4B2052C00D300240020094A66
:1033000001461154401C80B28028FAD3002556F89B
:103310002470D3E7844F00080C2B00209C00002071
:10332000240100200C3700201CB505490120CDE9FF
:1033300000018202002303A1054801F0F7FB1CBD38
:10334000940000206666745F7461736B0000000077
:103350009D32000886B0FEF701FBFFF775FB0025E4
:10336000334C0095019502950395A06940F0040047
:10337000A061A06900F004000490A06940F008007A
:10338000A061A0692B4E00F00800049001220721E3
:103390003046FEF7CFFA072000900120CDE9010565
:1033A0000320039069463046FEF7D4F9606940F087
:1033B000010060616069002200F0010000900521B9
:1033C0000B20FEF749FB0B20FEF738FBFFF75EFAF8
:1033D000FFF736FAFFF77CFA1848174901604FF4F7
:1033E000E131C0E901150821C560C0E904518561DA
:1033F000C561FFF7B9F908B172B6FEE700F0BCF895
:1034000000F06EF90E4A00210E4800F0A5F90E49B1
:1034100000238022486008310220CDE900010BA181
:103420000D4801F083FBFFF77FFF00F075F9FEE721
:1034300000100240000C0140003801406C010020E7
:10344000484F0008152A0008000000206F6C6564D2
:103450005F7461736B000000813600084FF4806177
:103460000448002202E000BF00F8012B491E89B287
:10347000FAD270470C2700200149087070470000FD
:10348000000000202DE9FE4F0027141A002C00DC5C
:10349000841A0FFA84F85C1A002C00DCCC1A0FFA9C
:1034A00084FC06B20DB24FF0FF34824203D30120F8
:1034B0008246019001E0A24601948B4203D3012091
:1034C0008146009001E0A1460094E0454FF00000E5
:1034D00008DB8146019008EBD870C3464410CDF854
:1034E00008C024E0824600200090E3460CEBDC702C
:1034F000CDF808804410D84619E0A9B2B0B200F067
:103500001BF80298204404B25C4508DBA4EB0B00D6
:1035100004B20198304406B20098284405B206EB84
:103520000A0006B205EB09007F1C05B23FB2474511
:10353000E3DDBDE8FE8F0000064BCA0803EBC212B4
:10354000104401F007030278012199400A430270F8
:10355000704700000C270020F0B515460E460746C0
:10356000002405E0301981B23846FFF7E5FF641CFE
:10357000AC42F7D3F0BD000010B53A4C0122114621
:103580002046FEF7D7F9C820FEF7D2F80022012125
:103590002046FEF7CFF9C820FEF7CAF801221146EF
:1035A0002046FEF7C7F9002204212046FEF7C2F9A3
:1035B000002202212046FEF7BDF9AE2000F06CF893
:1035C000D52000F069F8802000F066F8A82000F00F
:1035D00063F83F2000F060F8D32000F05DF8002091
:1035E00000F05AF8402000F057F88D2000F054F811
:1035F000142000F051F8202000F04EF8002000F0D8
:103600004BF8A12000F048F8C02000F045F8DA207F
:1036100000F042F8122000F03FF8812000F03CF862
:10362000EF2000F039F8D92000F036F8F12000F052
:1036300033F8DB2000F030F8302000F02DF8A42023
:1036400000F02AF8A62000F027F8AF2000F024F8B8
:10365000012202212046FEF76DF9BDE8104000F07E
:1036600003B80000000C01404FF4FA734FF480627D
:1036700001490248FEF7BCBD0C270020CC00002009
:10368000044C2078012801D1FFF7EEFF142000F050
:103690005FFEF6E70000002001B5322301226946F3
:1036A0000148FEF7A5FD08BDCC00002010B5EFF3E2
:1036B000058149B9EFF3108131B908490968022938
:1036C00005D1EFF3118111B16FF0050403E000247F
:1036D00008B100F03DFE204610BD00006C00002047
:1036E000EFF3058058B9EFF3108040B90949086835
:1036F000022801D030B109E0EFF3118030B16FF052
:103700000500704701200860002070474FF0FF302F
:10371000704700006C00002010B5EFF3058060B921
:10372000EFF3108048B90B490868022802D001283D
:1037300006D00BE0EFF3118040B16FF0050010BD33
:103740000220086000F0C4FE002010BD4FF0FF30E2
:1037500010BD00006C000020F0B585B04FEA0103F9
:103760004FF00004EFF305810394A1BBEFF3108148
:1037700089BB21490968022902D1EFF3118151BBAC
:1037800048B3802618218DF8104004AD42B3176865
:1037900007B13D4697691FB139467F1E382F02D2C7
:1037A0001779FF0702D0002005B0F0BD576907B1B7
:1037B000BE08D2F808C0BCF1000F0DD0D4685C2C54
:1037C00018D312693AB137B18DE80610324629464E
:1037D00001F0D9F903900DE0D7685FB912694AB9D1
:1037E00003AACDE90012B2B2294601F09FF90128DF
:1037F00000D003940398D7E76C0000202DE9F04136
:10380000134C0F46054666692068001D00F070FCE9
:10381000681C07D137B12168BDE8F0410D48091D8A
:1038200000F0B6BC20683544B5424560216805D239
:10383000A068BDE8F041091D00F092BC6068091D58
:1038400000F08EFC206B854200D22563BDE8F0813C
:103850001C000020280700202DE9F041054600F05B
:10386000A3FC2D4C2069401C206120682B4F10B117
:10387000E06930B32BE025602069012827D10026BC
:1038800006EB860007EB800000F05CFC761C382E0F
:10389000F6D3234800F056FC2148143000F052FCC7
:1038A0001F48283000F04EFC1D483C3000F04AFC18
:1038B0001B48503000F046FC194860601430A0608E
:1038C00005E02068E96AC06A884200D82560E06A9D
:1038D000401CE0626864E86AA169884200D9A0617E
:1038E00000EB800007EB8000291D00F051FC00F088
:1038F0007BFCE06900280CD02068E96AC06A884235
:1039000007D208494FF080500860BFF34F8FBFF3D4
:103910006F8FBDE8F08100001C00002078020020BD
:10392000D806002004ED00E038B500F03DFC104C56
:10393000A068C8B90F4800F005FC0E48143000F02C
:1039400001FC0C482060143060600A4B00202833D2
:10395000009003F1500210210A2000F08BFEA060BD
:1039600010B105A100F0BEFCBDE8384000F03CBC41
:10397000580000203C070020546D725100000000E8
:1039800030B4026C0B46002A0BD0C1681144C160F0
:103990004468A14201D30168C16030BC1846FCF7FD
:1039A0000CBF30BC70472DE9F041856B17460446CB
:1039B0000026026C82B1C7B1E068FCF7FEFEE16848
:1039C000206C091AE1602268914202D26168081AEB
:1039D000E060022F16D017E02068A8B9606801F0F7
:1039E00075F90646002060600EE0A068FCF7E5FE71
:1039F000216CA0680844A0606168884204D32068F4
:103A0000A06001E005B16D1E6D1CA5633046BDE8E8
:103A1000F08110B5044690F8590058B101280CD037
:103A200002280FD0502080F31188BFF34F8FBFF3CF
:103A30006F8FFEE7206B00F0EBFB2046BDE81040E7
:103A400000F0E6BB10BD000010484FF4C051420723
:103A500006D0C01D0D4920F00700411AC1F5C05124
:103A60000B4A00230144C2E900030839103A21F04F
:103A7000070111604B600B600B1AC0E900139360E3
:103A80004FF000405360D060704700000C0F0020E2
:103A900080000020144E154CA6F29C474FF0805831
:103AA000DFF84C9012E000BF00F07EFBF068C568C4
:103AB000281D00F01DFB2069401E2061E068401EAB
:103AC000E06000F091FB2846FFF7A3FFE0680028C4
:103AD000EAD138680128F9D9C9F80080BFF34F8FBF
:103AE000BFF36F8FF2E70000140700201C000020D6
:103AF00004ED00E070B51D46049C51B1C4F80020EF
:103B0000C4E90F010121204600F0E8FD84F84C5083
:103B100070BD2460F4E72DE9F0470E46DDE9098425
:103B20001746824691009946089DA522206BFCF716
:103B300056FE6FF00301206B01EB8701084420F073
:103B40000707780707D0502080F31188BFF34F8F05
:103B5000BFF36F8FFEE72218315C82F83410315CBE
:103B600011B1401C1028F6D3002684F84360382D8C
:103B700000D33725E562C4E91356201D00F0EDFAA5
:103B800004F1180000F0E9FA2461C5F1380064621C
:103B9000A061666584F858604A465146384600F090
:103BA0003BFA2060B8F1000F01D0C8F80040BDE832
:103BB000F087000030B5114900E011460A688242E2
:103BC000FBD34B685C18844203D1406818444860BA
:103BD000084643681C18944209D1084C103C2468DC
:103BE000A24209D052681A4442600A681268026010
:103BF000814200D0086030BD0460F9E780000020F9
:103C000070B5002441600B4D0061914206D8D11A75
:103C10008269914206D2011D686807E09A4203D288
:103C2000994201D3012403E0011D286800F098FAAD
:103C3000204670BD5800002010B5044600F0B4FACC
:103C4000A06B28B15FF0000400F0CEFA204610BD52
:103C50000124F9E730B589B0304D55E004980028CB
:103C600006DADDE90601059A9047049800284BDB47
:103C7000069C606910B1201D00F03AFA02A800F01D
:103C8000B9F8024604980A283ED2DFE800F005059C
:103C9000053D263705053D260598A16903460144E3
:103CA0002046FFF7ADFF00B3616A20468847E06910
:103CB000012829D1002000900598A169002342180D
:103CC0001946204601F00CF978B9502080F311888C
:103CD000BFF34F8FBFF36F8FFEE70598A06128B148
:103CE000811813462046FFF78BFF0DE0502080F32C
:103CF0001188BFF34F8FBFF36F8FFEE794F82C004E
:103D000010B9204600F084FA002204A9A86800F047
:103D100037FE0028A2D109B030BD000058000020B5
:103D20002DE9FC410F46054600F016FC01A800F005
:103D300061F80446019818B101F040F8BDE8FC8133
:103D4000224EAFB170680068A8B30027291B3A461D
:103D5000B06800F0DBFA01F031F80028EED11C4920
:103D60004FF080500860BFF34F8FBFF36F8FE5E7D0
:103D7000A542EBD801F022F830682746C068C46835
:103D8000201D00F0B5F9E069012810D1A0692B468B
:103D900041193A462046FFF733FF40B10020034661
:103DA000014600902A46204601F09AF820B1616A47
:103DB00020468847C2E707E0502080F31188BFF310
:103DC0004F8FBFF36F8FFEE70127BFE7580000203A
:103DD00004ED00E006484168096829B14168C968F6
:103DE000C9684968016370474FF0FF31FAE7000086
:103DF0001C00002070B5054600F0FEFE064E04468D
:103E00003069844203D200F009F8012000E000206C
:103E100028602046346170BD58000020F8B5194D67
:103E20001FE0C068C4680668201D00F061F9616A7F
:103E300020468847E069012813D1A0693044B04288
:103E400006D924616060211D286800F089F908E026
:103E500000200346014600903246204601F040F81B
:103E600038B1286801680029DBD16968C5E900100C
:103E7000F8BD502080F31188BFF34F8FBFF36F8FD1
:103E8000FEE700005800002008484068401C4FF042
:103E9000500080F3118804D0BFF34F8FBFF36F8FB2
:103EA000FEE7BFF34F8FBFF36F8FFEE78800002060
:103EB000074C2068016841B1C0680021D0F80000BB
:103EC000FFF72EFFFFF7C6FEF3E701210020F7E71B
:103ED000580000202DE9F041044600F065F994F9FE
:103EE000455004F1240609E0606A48B1304600F00C
:103EF0002DFF08B100F05AFA6D1E6DB2002DF3DCF3
:103F00004FF0FF3684F8456000F06EF900F04CF990
:103F100094F9445004F1100709E0206948B138468B
:103F200000F014FF08B100F041FA6D1E6DB2002DD3
:103F3000F3DC84F84460BDE8F04100F055B90000BE
:103F40002DE9F0410546002700F006FB314E3068B0
:103F500008B9FFF779FDF06805424BD1C5B30835C4
:103F600068070ED005F00700C0F108000544680797
:103F700007D0502080F31188BFF34F8FBFF36F8FAE
:103F8000FEE72DB37068854234D8224810300146D0
:103F90000C6801E020460C466168A94202D2216803
:103FA0000029F7D131688C4224D00768216801606C
:103FB00060680837411B10290FD96019420708D0E3
:103FC000502080F31188BFF34F8FBFF36F8FFEE750
:103FD00010E041606560FFF7EDFD61687068401AB0
:103FE0007060B268904200D2B060F0680143002077
:103FF000C4E9000100F0E2FE780707D0502080F30A
:104000001188BFF34F8FBFF36F8FFEE73846BDE8CF
:10401000F08100007000002010B5031F4FF0807485
:104020001C601B1F21F001011960191F024B0B605E
:10403000143940380A6010BD893E00082DE9F0416E
:1040400006460F46FCF7E4FE041E0D4618BF01208D
:10405000284320F00040C0F17F6000F1E040C00F35
:104060000ED0301C18BF0120384320F00040C0F1B2
:104070007F6000F1E040C00F04BF0120FEF710FE9A
:1040800020462946BDE8F08170B50C46064600F092
:104090008BF8154D2868406D80B92968012081F89A
:1040A00058005CB101212046FFF7A8FB0F494FF0F3
:1040B00080500860BFF34F8FBFF36F8F00F094F80C
:1040C00000F072F82868446D002034B116B12968F8
:1040D000486502E02A68611E5165296881F8580028
:1040E00000F082F8204670BD1C00002004ED00E0C6
:1040F000D0E9013201699A60D0E901235A604A6827
:10410000824201D182684A60002202610868401E32
:104110000860086870470000034B036003F15C000F
:10412000086080201060704754080020044B036032
:1041300003F15C0008604FF480701060704700006D
:10414000B00A002000F108014FF0FF32C0E901126F
:10415000C160016100210160704700210161704769
:1041600030B50B685A1C02D000F1080202E0026967
:1041700004E02246546825689D42FAD953684B6092
:1041800099608A60516008610168491C016030BD16
:1041900042684A6093688B609368596091600861D7
:1041A0000168491C01607047502080F31188BFF3FB
:1041B0004F8FBFF36F8F0A494868401C4860012841
:1041C0000CD10848006810F0FF0F07D0502080F392
:1041D0001188BFF34F8FBFF36F8FFEE7704700006A
:1041E0008800002004ED00E00849486828B1401E1E
:1041F000486001D180F311887047502080F3118806
:10420000BFF34F8FBFF36F8FFEE7000088000020E1
:1042100070B5002827D0144DA0F108046168E86843
:10422000014207D1502080F31188BFF34F8FBFF3B5
:104230006F8FFEE722683AB1502080F31188BFF3F8
:104240004F8FBFF36F8FFEE78143616000F084F909
:1042500060686968084468602046FFF7ABFCBDE809
:10426000704000F0ABBD70BD700000204FF0E0204A
:1042700000210161816105494FF47A720968B1FB3F
:10428000F2F1491E416107210161704718000020C9
:1042900010B5FBF77DFF114910280ED300F1E02087
:1042A00090F8F0030A78904207D2502080F31188EA
:1042B000BFF34F8FBFF36F8FFEE70948006889682F
:1042C00000F4E060884207D9502080F31188BFF3E2
:1042D0004F8FBFF36F8FFEE710BD000088000020F6
:1042E0000CED00E010B5084B002200BF53F832403F
:1042F0001CB1521C082AF9D310BD43F8321003EB4D
:10430000C201486010BD00003802002070B515469B
:104310000E460446FFF748FF94F944100020491C5C
:1043200001D184F8440094F94510491C01D184F866
:104330004500FFF759FFA06B28B92A46314604F122
:10434000240000F0A9F82046BDE87040FFF7C2BD88
:1043500010B5020014D00F48806B38B1502080F3A4
:104360001188BFF34F8FBFF36F8FFEE700F0F4F8B3
:1043700000211046FFF742FA00F020FD002807D187
:1043800005494FF080500860BFF34F8FBFF36F8F28
:1043900010BD00001C00002004ED00E002498A6A04
:1043A00002604969416070471C00002001490120FA
:1043B000486270471C0000202DE9F0410E460400C1
:1043C00015D0FFF765FF5020EFF3118580F31188BA
:1043D000BFF34F8FBFF36F8F94F85800022184F81A
:1043E0005810616D491C6165012808D032E05020E9
:1043F00080F31188BFF34F8FBFF36F8FFEE7A06A82
:1044000038B1502080F31188BFF34F8FBFF36F8F07
:10441000FEE7124FB86B18B104F1180110480DE017
:10442000201DFFF765FEE06AB969884200D9B861CE
:104430000C4900EB800001EB8000211DFFF7A8FE76
:10444000E06A3968C96A884204D901200EB1306037
:1044500000E0786285F31188BDE8F0811C0000203F
:10446000000700207802002010B50C4650B1094921
:1044700009681831FFF774FE2046BDE8104001219D
:10448000FFF7BCB9502080F31188BFF34F8FBFF303
:104490006F8FFEE71C00002070B514460D4668B112
:1044A0000A4909681831FFF773FE0CB14FF0FF3568
:1044B00021462846BDE87040FFF7A0B9502080F3A0
:1044C0001188BFF34F8FBFF36F8FFEE71C000020F2
:1044D00030B587B00024039405AA04A903A8049466
:1044E000FFF71AFEDDE903010094CDE90110002376
:1044F00015A11748059A00F046FB164D0028686381
:104500001FD000F0BDFC012809D0401C19D150205B
:1045100080F31188BFF34F8FBFF36F8FFEE75020FA
:1045200080F31188BFF34F8FBFF36F8F4FF0FF30D1
:1045300028630120E8616C6107B0BDE8304000F0FD
:1045400045B807B030BD000049444C4500000000AC
:10455000953A00081C0000200248816B491C8163C9
:10456000704700001C000020164810B5816B11B187
:104570000121416210BD002141628169124A01E0BE
:10458000B9B1491E01EB810352F82330002BF7D05B
:1045900001EB810302EB830202F1080453685B68BC
:1045A0005360A34201D15B685360DA6802608161A5
:1045B00010BD502080F31188BFF34F8FBFF36F8F72
:1045C000FEE700001C000020780200201CB52649F0
:1045D00008780190FF20087008788DF800009DF899
:1045E00000009DF8002000F0F000904207D050201D
:1045F00080F31188BFF34F8FBFF36F8FFEE79DF8F5
:1046000000001A4B00F0500018700720986005E079
:104610009DF8002052008DF80020401E9DF80020DB
:104620001206F5D49860032807D0502080F3118833
:10463000BFF34F8FBFF36F8FFEE74FF4407098606A
:10464000019808700A48016841F47001016001682E
:1046500041F070410160FFF709FE00205860FBF750
:1046600061FD00201CBD000000E400E08800002087
:1046700020ED00E038B5049D18B153B1CAB181B145
:1046800020E0502080F31188BFF34F8FBFF36F8F6E
:10469000FEE7502080F31188BFF34F8FBFF36F8F79
:1046A000FEE7502080F31188BFF34F8FBFF36F8F69
:1046B000FEE739B1502080F31188BFF34F8FBFF36D
:1046C0006F8FFEE750241C46012384F846302B46AA
:1046D0000094FFF70FFA204638BD000070B50D4674
:1046E000040025D0FFF760FDD4E90F20216802FB0C
:1046F000001161600021A1632168A1600A46D4E92C
:104700000F01401E00FB0121E16021464FF0FF3008
:1047100001F8440F487004F110008DB1FFF712FD4D
:1047200004F12400FFF70EFDFFF75EFD012070BDD0
:10473000502080F31188BFF34F8FBFF36F8FFEE7D8
:1047400021690029F0D000F001FB0028ECD00449D9
:104750004FF080500860BFF34F8FBFF36F8FE3E7D8
:1047600004ED00E02DE9FF4782B01D468A464FF078
:104770000008040003D0BAF1000F08D011E0502067
:1047800080F31188BFF34F8FBFF36F8FFEE7206C6C
:1047900038B1502080F31188BFF34F8FBFF36F8F74
:1047A000FEE7022D0AD1E06B012807D0502080F3EC
:1047B0001188BFF34F8FBFF36F8FFEE700F00EFA43
:1047C0003F4F4FF000094FF0805648B9049838B178
:1047D000502080F31188BFF34F8FBFF36F8FFEE738
:1047E000FFF7E2FCA06BE16B884207D3022D05D0F6
:1047F0000498D0B1B8F1000F1AD01EE02A465146F5
:104800002046FFF7D0F8616A19B104F1240000F0E6
:104810009DFA20B13E60BFF34F8FBFF36F8FFFF75C
:10482000E3FC012006B0BDE8F087FFF7DDFC22E0E5
:104830006846FFF7B3FD4FF00108FFF7D5FCFFF71F
:104840008BFEFFF7B1FC94F94400401C01D184F8C1
:10485000449094F94500401C01D184F84590FFF73D
:10486000C3FC04A9684600F027F930B12046FFF7E1
:1048700031FB00F0A3FA0020D4E7FFF795FCA06B12
:10488000E16B884213D1FFF7AFFC04F110000499EB
:10489000FFF7EAFD2046FFF71DFB00F08FFA002826
:1048A0009ED13E60BFF34F8FBFF36F8F98E7FFF746
:1048B0009BFC2046FFF70EFB00F080FA90E700001B
:1048C00004ED00E02DE9F0471F46904689460400BC
:1048D00003D0B9F1000F08D011E0502080F3118807
:1048E000BFF34F8FBFF36F8FFEE7206C38B15020BE
:1048F00080F31188BFF34F8FBFF36F8FFEE7022F56
:104900000AD1E06B012807D0502080F31188BFF353
:104910004F8FBFF36F8FFEE7FFF7BAFC5020EFF326
:10492000118680F31188BFF34F8FBFF36F8FA06B99
:10493000E16B884206D3022F04D0002086F3118851
:10494000BDE8F08794F945503A4649462046FFF7BE
:104950002AF8681C04D06D1C84F845500120EDE74E
:10496000606A0028FAD004F1240000F0EFF9002872
:10497000F4D0B8F1000FF1D00121C8F80010EDE734
:104980002DE9F747002683B08A46040003D0BAF128
:10499000000F08D011E0502080F31188BFF34F8F33
:1049A000BFF36F8FFEE7206C38B1502080F3118881
:1049B000BFF34F8FBFF36F8FFEE700F00FF9DFF803
:1049C000F4804FF000094FF0805748B9059838B18E
:1049D000502080F31188BFF34F8FBFF36F8FFEE736
:1049E000FFF7E2FBA56BC5B151462046FEF7C8FFB5
:1049F0006D1EA563206950B104F1100000F0A6F906
:104A000028B1C8F80070BFF34F8FBFF36F8FFFF767
:104A1000EBFB012006B0BDE8F087059808B11EB198
:104A200006E0FFF7E1FB27E06846FFF7B7FC012649
:104A3000FFF7DAFBFFF790FDFFF7B6FB94F94400B0
:104A4000401C01D184F8449094F94500401C01D1E8
:104A500084F84590FFF7C8FB05A9684600F02CF8DC
:104A6000002820460AD0FFF735FA00F0A7F92046C3
:104A7000FFF7E2F80028B3D00020CBE7FFF7DCF81F
:104A800090B104F124000599FFF7EEFC2046FFF7F2
:104A900021FA00F093F90028A2D1C8F80070BFF302
:104AA0004F8FBFF36F8F9BE72046FFF713FA00F09D
:104AB00085F995E704ED00E02DE9F0410C4605008D
:104AC00011D0C4B1FFF770FB174B5A696E682068AC
:104AD000911B471C17D02F689B6A9F4219D09642A2
:104AE00017D8012410E0502080F31188BFF34F8FB6
:104AF000BFF36F8FFEE7502080F31188BFF34F8F15
:104B0000BFF36F8FFEE70024FFF76EFB2046BDE882
:104B1000F081884205D9401A20602846FFF73EFC04
:104B2000F1E700202060DCE71C0000202DE9FF5F9A
:104B30008346DDE90E87994616468A469000FFF7C0
:104B4000FFF905001CD05C20FFF7FAF9040014D02F
:104B50000020256384F85900CDE90240CDE90087A3
:104B60004B46324651465846FEF7D5FF2046FEF7E3
:104B700073FE012004B0BDE8F09F2846FFF748FB14
:104B80004FF0FF30F6E7F0B585B0DDE90B640A9D24
:104B9000A6B1DCB15C2700972663022684F8596031
:104BA000002604AFCDE90246CDE90057FEF7B3FF7A
:104BB0002046FEF751FE049805B0F0BD502080F36A
:104BC0001188BFF34F8FBFF36F8FFEE7502080F344
:104BD0001188BFF34F8FBFF36F8FFEE70548C169A0
:104BE00019B1806B18B10020704701207047022076
:104BF000704700001C000020014840697047000019
:104C00001C0000202DE9F0412E4C0027A06B40B184
:104C1000206A401C2062606A00B101273846BDE866
:104C2000F0816669761C666113D16068006838B1EE
:104C3000502080F31188BFF34F8FBFF36F8FFEE7D3
:104C40006068A1686160A060A06A401CA062FFF774
:104C5000C1F8206BDFF87080864209D36068006875
:104C600080B16068C068C568686886420DD22063FC
:104C70002068C06A00EB800158F821000128CAD9D9
:104C80000127C8E74FF0FF30F1E7281DFFF730FAA2
:104C9000A86A18B105F11800FFF72AFAE86AA169B5
:104CA000884200D9A06100EB800108EB8100291D3A
:104CB000FFF76EFAE86A2168C96A8842CED30127F5
:104CC000CCE700001C0000207802002070B5040032
:104CD0004FF0000133D01B4D2868844207D050208C
:104CE00080F31188BFF34F8FBFF36F8FFEE7206D06
:104CF00038B1401E2065E36CE26A9A421FD040B191
:104D00001DE0502080F31188BFF34F8FBFF36F8FEA
:104D1000FEE7201DFFF7ECF9E06CE062C0F138001F
:104D2000A061E06AA969884200D9A861064900EB40
:104D3000800001EB8000211DFFF72AFA01210846BF
:104D400070BD00001C0000207802002070B5C06813
:104D5000C46854B104F118000646FFF7C9F9144DB0
:104D6000A86B50B13146134815E0502080F31188EC
:104D7000BFF34F8FBFF36F8FFEE7201DFFF7B8F92A
:104D8000E06AA969884200D9A8610B4900EB80005C
:104D900001EB8000211DFFF7FBF9E06A2968C96A71
:104DA000884202D90120686270BD002070BD0000F9
:104DB0001C00002000070020780200202DE9F047A9
:104DC0002C4D00242746A86B38B1FFF7EDF9A86BEE
:104DD000401EA863A86B40B146E0502080F31188C4
:104DE000BFF34F8FBFF36F8FFEE72969224E01207B
:104DF000D1B3A6F5916980463068E0B1F068C46827
:104E000004F11800FFF774F9201DFFF771F9E06A4B
:104E1000A969884200D9A86100EB800109EB8100F3
:104E2000211DFFF7B5F9E06A2968C96A8842E3D312
:104E3000C5F82480E0E70CB1FEF7CCFF2C6A4CB13A
:104E40004FEA0806FFF7DEFE00B16E62641EF9D17C
:104E500000202862686A38B10849012738070860CD
:104E6000BFF34F8FBFF36F8FFFF7BEF93846BDE832
:104E7000F08700001C0000200007002004ED00E087
:104E800010B586B0FEF750FD114CA068B8B10020F7
:104E90000390049005AA04A903A8FFF747F9DDE9E8
:104EA000032102208DE8070000230AA10B48059A80
:104EB000FFF769FEE06010B106B0012010BD502080
:104EC00080F31188BFF34F8FBFF36F8FFEE70000B1
:104ED00058000020546D722053766300B13E0008E4
:104EE0002DE9FF411E46134602000A9D4FF00000C7
:104EF00016D0144CA768002F0FD0CDE900130292F2
:104F0000062917DAFFF76AFE02284FF000030FD0D8
:104F100000226946A068FFF725FC04B0BDE8F081D7
:104F2000502080F31188BFF34F8FBFF36F8FFEE7E0
:104F30002A46EEE70023324669463846FFF7C2FCB0
:104F4000EBE70000580000201850000800000000A7
:104F5000000000000000000000000000000200004F
:104F60001800000000000000000000000000000029
:104F70000000000001020304060708090000000009
:104F800001020304AD2C0008012D0008752D000856
:104F9000312F00081D310008CDCC4C3DCDCCCC3D8F
:104FA0009A99193ECDCC4C3E0000803E9A99993E8C
:104FB000CDCCCC3E0000003F9A99193F3333333FAC
:104FC0000000803F9A99993F3333B33FCDCCCC3F1B
:104FD0006666E63F000000409A99194066662640E2
:104FE00033333340000040409A995940666666402A
:104FF000000080400000B0400000C04000000041C0
:1050000000004041000090410000D04100001042EB
:10501000000038420000604264656661756C74543B
:1050200061736B0044500008000000209C000000E9
:10503000822C0008E05000089C000020F43A000098
:10504000922C000801000000000000000000000099
:105050000100000010000000000000000024F40027
:105060000000000000000000000000000000000040
:105070000000000000000000000000000000000030
:105080000000000000000000000000000000000020
:105090000000000000000000000000000000000010
:1050A0000000000000000000000000000000000000
:1050B00000000000000000000000000000000000F0
:1050C00000000000000000000000000000000000E0
:1050D000AAAAAAAA00000000000000000000000028
:04000005080000ED02
:00000001FF
